:101566004100600041005E0041005F0041006100F3
:1015760041006201410063014100640141006501CF
:1015860041006601410067014100680141006901AF
:101596004100080152000A07080105030209040672
:1015A6000908010406020305075200340000000082
:1015B60000000000000000000000000000004800DD
:1015C60000000000000000000048001C00000000B1
:1015D6000000010548002400000000000003024846
:1015E600002C000000000004060148004600000030
:1015F600000006080748004E000000000802060327
:0B160600480056010203040506070817
:1017D900C2AF758920758DFDD28EC29FD29ED2AFC0
:0117E90022DD
:100003007F7E1200147F041200147F421200147FBB
:0100130001EB
:0E001400C2ACC2998F993099FDC299D2AC222C
:1017C600121758FF600C120014740129F9E43AFA52
:0317D60080EE2280
:030023000217972A
:10179700C0E0C083C082C2ACC298900009E599F04E
:0917A700D2ACD082D083D0E03234
:1000260012169E20A2FD900061E070F77F32FE124C
:10003600173220A2EE7F3312135F7F0112135F90F7
:1000460000617401F0E4900060F07F5E7E0112179B
:1000560032900060E004F0E0C3946440ED7F331218
:10006600135F7F0212135FD2C22084FD3084FD7FAE
:100076003312135F7F0A12135FC2C2D2907FD07E03
:10008600071217327F3312135F7F0312135F208329
:10009600FD3083FD7F3312135F7F0A12135FC29018
:1000A600D2917FD07E071217327F3312135F7F04FF
:1000B60012135F2082FD3082FD7F3312135F7F0AA9
:1000C60012135FC291D2927FD07E071217327F330E
:1000D60012135F7F0512135F2081FD3081FD7F3390
:1000E60012135F7F0A12135FC292D2937FD07E07EC
:1000F6001217327F3312135F7F0612135F2080FDC3
:100106003080FD7F3312135F7F0A12135FC293D2D2
:10011600947FD07E071217327F3312135F7F071248
:10012600135F20A7FD30A7FD7F3312135F7F0A12EE
:10013600135FC294D2957FD07E071217327F331297
:10014600135F7F0812135F20A6FD30A6FD7F3312D2
:10015600135F7F0A12135FC295D296D2977FD07E25
:10016600071217327F3312135F7F0912135F20A520
:10017600FD20A4FA7F3312135F7F0A12135FC29623
:10018600C2977FD07E071217327F3312135F7F0B21
:1001960012135F7F887E131217327F3312135F7F2D
:1001A6000C12135F7F887E13121732D2957FD07E92
:1001B60007121732C295D2967FE87E03121732C213
:1001C60096D2C27F207E03121732C2C2D293121772
:1001D6002EC293D29112172EC291D2907F207E0307
:1001E600121732C290D2977FE87E03121732C29757
:1001F600D2927FE87E03121732C292D2947FD07ECB
:1002060007121732C294D2977FC87E00121732C2E5
:1002160097D2967FC87E00121732C296D2C27FC886
:100226007E00121732C2C2D2927FC87E00121732E7
:10023600C292D2947FC87E00121732C294D2907FA7
:10024600C87E00121732C290D29112172EC291D2D6
:10025600937FE87E03121732C293D2957FB87E0B46
:10026600121732C295900062E0640160030204E94D
:100276001209E190005EE0B412EB900034E0FF90CA
:10028600000AE06F60030203DA900035E0FF900099
:100296000BE06F60030203DA900036E0FF90000C7B
:1002A600E06F60030203DA900037E0FF90000DE094
:1002B6006F60030203DA900038E0FF90000EE06FF3
:1002C60060030203DA900039E0FF90000FE06F60F0
:1002D600030203DA90003AE0FF900010E06F60033B
:1002E6000203DA90003BE0FF900011E06F6003022A
:1002F60003DA90003CE0FF900012E06F6003020317
:10030600DA90003DE0FF900013E06F60030203DA2D
:1003160090003EE0FF900014E06F60030203DA9065
:10032600003FE0FF900015E06F60030203DA9000E3
:1003360040E0FF900016E06F60030203DA90004190
:10034600E0FF900017E06F60030203DA900042E0DE
:10035600FF900018E06F707C900043E0FF9000195A
:10036600E06F7070900044E0FF90001AE06F7064D8
:10037600900045E0FF90001BE06F7058900062F01F
:10038600900034F0A3F0A3F0A3F0A3F0A3F0A3F041
:10039600A3F0A3F0A3F0A3F0A3F0A3F0A3F0A3F0BF
:1003A600A3F0A3F0A3F012172E7F3312135F7F0F73
:1003B60012135F12172ED2A1D2C2D290D291D2922C
:1003C600D293D294D295D296D2977F407E1F12179F
:1003D6003202026BC2C2C290C291C292C293C2944E
:1003E600C295C296C297E4900034F0A3F0A3F0A39E
:1003F600F0A3F0A3F0A3F0A3F0A3F0A3F0A3F0A35F
:10040600F0A3F0A3F0A3F0A3F0A3F0A3F012172E2D
:100416007F3312135F7F0E12135F7F887E131217CE
:1004260032D2957FD07E07121732C295D2967FE8D8
:100436007E03121732C296D2C27F207E0312173273
:10044600C2C2D29312172EC293D29112172EC29104
:10045600D2907F207E03121732C290D2977FE87E19
:1004660003121732C297D2927FE87E03121732C266
:1004760092D2947FD07E07121732C294D2977FC849
:100486007E00121732C297D2967FC87E00121732AC
:10049600C296D2C27FC87E00121732C2C2D2927FE3
:1004A600C87E00121732C292D2947FC87E001217FD
:1004B60032C294D2907FC87E00121732C290D29177
:1004C60012172EC291D2937FE87E03121732C2937F
:1004D600D2957FB87E0B121732C295E490005EF07B
:1004E60002026B900063E0640160030205B812101B
:1004F6004C90005FE0B402EB900000E0FF90001C1F
:10050600E06F6003020599900001E0FF90001DE096
:100516006F6003020599900002E0FF90001EE06FF5
:100526007071900003E0FF90001FE06F706590000F
:1005360004E0FF900020E06F7059900005E0FF9006
:100546000021E06F704D900006E0FF900022E06F02
:100556007041900007E0FF900023E06F7035900037
:100566005FF07FE87E03121732E4900063F090009C
:1005760000F0A3F0A3F0A3F0A3F0A3F0A3F0A3F080
:1005860012172E7F3312135F7F1112135F12172E6D
:100596000204E97FE87E0312173212170B7F33122B
:1005A600135F7F1012135F12172EE490005FF002A4
:1005B60004E9900064E06401600302068712104CAF
:1005C60090005FE0B402EB900000E0FF900024E0B2
:1005D6006F6003020668900001E0FF900025E06F5F
:1005E6006003020668900002E0FF900026E06F704C
:1005F60071900003E0FF900027E06F7065900004A3
:10060600E0FF900028E06F7059900005E0FF900031
:1006160029E06F704D900006E0FF90002AE06F70B1
:1006260041900007E0FF90002BE06F703590005F6F
:10063600F07FE87E03121732E4900064F090000029
:10064600F0A3F0A3F0A3F0A3F0A3F0A3F0A3F0129D
:10065600172E7F3312135F7F1312135F12172E02AA
:1006660005B87FE87E0312173212170B7F33121379
:100676005F7F1212135F12172EE490005FF00205DF
:10068600B8900065E06401600302074F12104C90B9
:10069600005FE0B403EB900000E0FF90002CE06FF9
:1006A6006003020730900001E0FF90002DE06F70BC
:1006B60079900002E0FF90002EE06F706D900003CD
:1006C600E0FF90002FE06F7061900004E0FF900063
:1006D60030E06F7055900005E0FF900031E06F70DC
:1006E60049900006E0FF900032E06F703D900007F1
:1006F600E0FF900033E06F703190005FF07FE87E9E
:1007060003121732E4900065F0900000F0A3F0A306
:10071600F0A3F0A3F0A3F0A3F0A3F012172E7F33FB
:1007260012135F7F1512135F80197FE87E0312177D
:100736003212170B7F3312135F7F1412135FE4908C
:10074600005FF012172E020687900066E0640160D3
:100756000302081712104C90005FE0B403EB900000
:1007660000E0FF900046E06F60030207F89000018A
:10077600E0FF900047E06F7079900002E0FF900084
:1007860048E06F706D900003E0FF900049E06F70E5
:1007960061900004E0FF90004AE06F7055900005FC
:1007A600E0FF90004BE06F7049900006E0FF90007C
:1007B6004CE06F703D900007E0FF90004DE06F70D9
:1007C6003190005FF07FE87E03121732E4900066F6
:1007D600F0900000F0A3F0A3F0A3F0A3F0A3F0A321
:1007E600F0A3F012172E7F3312135F7F1712135FD9
:1007F60080197FE87E0312173212170B7F3312130C
:100806005F7F1612135FE490005FF012172E020747
:100816004F900067E0640160030208DF12104C90FD
:10082600005FE0B404EB900000E0FF90004EE06F44
:1008360060030208C0900001E0FF90004FE06F7077
:1008460079900002E0FF900050E06F706D90000319
:10085600E0FF900051E06F7061900004E0FF9000AF
:1008660052E06F7055900005E0FF900053E06F7006
:1008760049900006E0FF900054E06F703D9000073D
:10088600E0FF900055E06F703190005FF07FE87EEA
:1008960003121732E4900067F0900000F0A3F0A373
:1008A600F0A3F0A3F0A3F0A3F0A3F012172E7F336A
:1008B60012135F7F1912135F80197FE87E031217E8
:1008C6003212170B7F3312135F7F1812135FE490F7
:1008D600005FF012172E020817900068E0640160AE
:1008E6000302002912104C90005FE0B408EB900060
:1008F60000E0FF900056E06F60030209BE90000121
:10090600E0FF900057E06F60030209BE900002E02E
:10091600FF900058E06F60030209BE900003E0FFFD
:10092600900059E06F60030209BE900004E0FF905A
:10093600005AE06F60030209BE900005E0FF9000D8
:100946005BE06F7073900006E0FF90005CE06F70F4
:1009560067900007E0FF90005DE06F705B90005FBE
:10096600F07FE87E03121732E4900068F0900000F2
:10097600F0A3F0A3F0A3F0A3F0A3F0A3F0A3F0126A
:10098600172E7F3312135F7F2212135F12172ED298
:10099600B2D2B3D2B4D2B5D2B6D2B7D2C0D2A07F79
:1009A600407E1F1217327F407E1F1217327FA07EB5
:1009B6000F121732D2C380FE7FE87E03121732125F
:1009C600170B7F3312135F7F2412135F7F587E024B
:0B09D600121732E490005FF00208DF0F
:10169E00E4F5937594FFF5917592FFF5957596FFA8
:1016AE00F5B175B2FCF5B375B4FF75BB70C2C2C2AD
:1016BE0090C291C292C293C294C295C296C297C270
:1016CE00C3C2B2C2B3C2B4C2B5C2B6C2B7C2C0C23E
:1016DE00A0C2A1D2A2D2A3D2A4D2A5D2A6D2A7D260
:1016EE00C4D2C5D2C1D2C6D287D286D285D284D236
:0D16FE0083D282D281D2801217D90217B098
:10170B00E4900000F0A3F0A3F0A3F0A3F0A3F0A3E8
:10171B00F0A3F0C2B2C2B3C2B4C2B5C2B6C2B7C2B2
:07172B00C0C2A07FF47E01A3
:10173200E4FDFCC3ED9FEE6480F8EC6480985015E4
:10174200E4FBFA0BBB00010ABA03F8BBE8F50DBDD6
:0517520000010C80DE27
:01175700226F
:10134B00C2B4C2B5C2B6C2B7C2C0C2A090005FE001
:04135B0004F07F33E8
:10135F00EF12177113E50113EB0213F20313FA04E3
:10136F00140205140A06141207141A081422091479
:10137F002A0A14320B143A0C14420D144A0E14524A
:10138F000F145A10146211146A12147213147A146F
:10139F00148215148A16149217149A1814A2191479
:1013AF00AA1A14B21B14BA1C14C21D14CA1E14D2CA
:1013BF001F14DA2014E22114EA2214F22314F92460
:1013CF00150031151332152633153934154C3515D3
:1013DF0013360000156512000302155D1200030F8E
:1013EF0002155D1200037F0302155D1200037F04D7
:1013FF0002155D1200037F0502155D1200037F06C3
:10140F0002155D1200037F0702155D1200037F08AE
:10141F0002155D1200037F0902155D1200037F0A9A
:10142F0002155D1200037F0B02155D1200037F0C86
:10143F0002155D1200037F0D02155D1200037F0E72
:10144F0002155D1200037F0F02155D1200037F105E
:10145F0002155D1200037F1102155D1200037F124A
:10146F0002155D1200037F1302155D1200037F1436
:10147F0002155D1200037F1502155D1200037F1622
:10148F0002155D1200037F1702155D1200037F180E
:10149F0002155D1200037F1902155D1200037F1AFA
:1014AF0002155D1200037F1B02155D1200037F1CE6
:1014BF0002155D1200037F1D02155D1200037F1ED2
:1014CF0002155D1200037F1F02155D1200037F20BE
:1014DF0002155D1200037F2102155D1200037F22AA
:1014EF0002155D1200037F2380641200037F2480A6
:1014FF005D7F7E1200147F031200147F31120014DF
:10150F007F20804A7F7E1200147F031200147F31E8
:10151F001200147F1080377F7E1200147F03120099
:10152F00147F331200147F0480247F7E1200147FF7
:10153F00031200147F331200147F0280117F7E127A
:10154F0000147F031200147F311200147F07120062
:07155F00147FEF12001422BB
:1017B0007F3312135F7F3112135FC2AC7F647E00F0
:0617C000121732D2AC2228
:1009E100308403020A977F327E001217323084036B
:1009F10002104BD2C2C290C291C292C293C294C29F
:100A010095C296C2973084FD900035E0900034F095
:100A1100900036E0900035F0900037E0900036F01D
:100A2100900038E0900037F0900039E0900038F005
:100A310090003AE0900039F090003BE090003AF0ED
:100A410090003CE090003BF090003DE090003CF0D5
:100A510090003EE090003DF090003FE090003EF0BD
:100A6100900040E090003FF0900041E0900040F0A5
:100A7100900042E0900041F0900043E0900042F08D
:100A8100900044E0900043F0900045E0900044F075
:100A9100A37401021044308303020B4D7F327E00A8
:100AA10012173230830302104BC2C2D290C291C2DC
:100AB10092C293C294C295C296C2973083FD9000B0
:100AC10035E0900034F0900036E0900035F0900071
:100AD10037E0900036F0900038E0900037F0900059
:100AE10039E0900038F090003AE0900039F0900041
:100AF1003BE090003AF090003CE090003BF0900029
:100B01003DE090003CF090003EE090003DF0900010
:100B11003FE090003EF0900040E090003FF09000F8
:100B210041E0900040F0900042E0900041F09000E0
:100B310043E0900042F0900044E0900043F09000C8
:100B410045E0900044F0A374020210443082030295
:100B51000C037F327E0012173230820302104BC227
:100B6100C2C290D291C292C293C294C295C296C29D
:100B7100973082FD900035E0900034F0900036E02F
:100B8100900035F0900037E0900036F0900038E0AA
:100B9100900037F0900039E0900038F090003AE092
:100BA100900039F090003BE090003AF090003CE07A
:100BB10090003BF090003DE090003CF090003EE062
:100BC10090003DF090003FE090003EF0900040E04A
:100BD10090003FF0900041E0900040F0900042E032
:100BE100900041F0900043E0900042F0900044E01A
:100BF100900043F0900045E0900044F0A37403029C
:100C01001044308103020CB97F327E00121732305A
:100C1100810302104BC2C2C290C291D292C293C24E
:100C210094C295C296C2973081FD900035E0900044
:100C310034F0900036E0900035F0900037E09000FD
:100C410036F0900038E0900037F0900039E09000E5
:100C510038F090003AE0900039F090003BE09000CD
:100C61003AF090003CE090003BF090003DE09000B5
:100C71003CF090003EE090003DF090003FE090009D
:100C81003EF0900040E090003FF0900041E0900085
:100C910040F0900042E0900041F0900043E090006D
:100CA10042F0900044E0900043F0900045E0900055
:100CB10044F0A37404021044308003020D6F7F32AC
:100CC1007E0012173230800302104BC2C2C290C2A2
:100CD10091C292D293C294C295C296C2973080FDBE
:100CE100900035E0900034F0900036E0900035F04F
:100CF100900037E0900036F0900038E0900037F037
:100D0100900039E0900038F090003AE0900039F01E
:100D110090003BE090003AF090003CE090003BF006
:100D210090003DE090003CF090003EE090003DF0EE
:100D310090003FE090003EF0900040E090003FF0D6
:100D4100900041E0900040F0900042E0900041F0BE
:100D5100900043E0900042F0900044E0900043F0A6
:100D6100900045E0900044F0A3740502104430A7C0
:100D710003020E257F327E0012173230A7030210C4
:100D81004BC2C2C290C291C292C293D294C295C2C6
:100D910096C29730A7FD900035E0900034F09000A6
:100DA10036E0900035F0900037E0900036F090008A
:100DB10038E0900037F0900039E0900038F0900072
:100DC1003AE0900039F090003BE090003AF090005A
:100DD1003CE090003BF090003DE090003CF0900042
:100DE1003EE090003DF090003FE090003EF090002A
:100DF10040E090003FF0900041E0900040F0900012
:100E010042E0900041F0900043E0900042F09000F9
:100E110044E0900043F0900045E0900044F0A3745A
:100E21000602104430A603020EDB7F327E00121749
:100E31003230A60302104BC2C2C290C291C292C20A
:100E410093C294D295C296C29730A6FD900035E028
:100E5100900034F0900036E0900035F0900037E0DB
:100E6100900036F0900038E0900037F0900039E0C3
:100E7100900038F090003AE0900039F090003BE0AB
:100E810090003AF090003CE090003BF090003DE093
:100E910090003CF090003EE090003DF090003FE07B
:100EA10090003EF0900040E090003FF0900041E063
:100EB100900040F0900042E0900041F0900043E04B
:100EC100900042F0900044E0900043F0900045E033
:100ED100900044F0A3740702104430A503020F915F
:100EE1007F327E0012173230A50302104BC2C2C2FC
:100EF10090C291C292C293C294C295D296C29730C7
:100F0100A5FD900035E0900034F0900036E09000AF
:100F110035F0900037E0900036F0900038E0900016
:100F210037F0900039E0900038F090003AE09000FE
:100F310039F090003BE090003AF090003CE09000E6
:100F41003BF090003DE090003CF090003EE09000CE
:100F51003DF090003FE090003EF0900040E09000B6
:100F61003FF0900041E0900040F0900042E090009E
:100F710041F0900043E0900042F0900044E0900086
:100F810043F0900045E0900044F0A374080210443F
:100F910030A40302104B7F327E0012173230A403BB
:100FA10002104BC2C2C290C291C292C293C294C2F9
:100FB10095C296D29730A4FD900035E0900034F0B0
:100FC100900036E0900035F0900037E0900036F068
:100FD100900038E0900037F0900039E0900038F050
:100FE10090003AE0900039F090003BE090003AF038
:100FF10090003CE090003BF090003DE090003CF020
:1010010090003EE090003DF090003FE090003EF007
:10101100900040E090003FF0900041E0900040F0EF
:10102100900042E0900041F0900043E0900042F0D7
:10103100900044E0900043F0900045E0900044F0BF
:0B104100A37409F090005EE004F022B0
:10104C0020C4587F327E0012173230C40302134A78
:10105C0030C4FD900001E0900000F0900002E090A0
:10106C000001F0900003E0900002F0900004E0908A
:10107C000003F0900005E0900004F0900006E09072
:10108C000005F0900007E0900006F0A37401F0D288
:10109C00B2C2B312134B7F1A02134720C5607F32C2
:1010AC007E0012173230C50302134A30C5FD900082
:1010BC0001E0900000F0900002E0900001F0900040
:1010CC0003E0900002F0900004E0900003F0900028
:1010DC0005E0900004F0900006E0900005F0900010
:1010EC0007E0900006F0A37402F0C2B2C2B3C2B41F
:1010FC00C2B5C2B6D2B71213537F1B02134720C11D
:10110C005A7F327E0012173230C10302134A30C1AB
:10111C00FD900001E0900000F0900002E0900001D2
:10112C00F0900003E0900002F0900004E0900003C7
:10113C00F0900005E0900004F0900006E0900005AF
:10114C00F0900007E0900006F0A37403F0C2B2C266
:10115C00B3D2B412134D7F1C02134720C65C7F32EE
:10116C007E0012173230C60302134A30C6FD9000BF
:10117C0001E0900000F0900002E0900001F090007F
:10118C0003E0900002F0900004E0900003F0900067
:10119C0005E0900004F0900006E0900005F090004F
:1011AC0007E0900006F0A37404F0C2B2C2B3C2B45C
:1011BC00D2B512134F7F1D0213472087587F327E02
:1011CC000012173230870302134A3087FD9000015A
:1011DC00E0900000F0900002E0900001F09000031D
:1011EC00E0900002F0900004E0900003F090000505
:1011FC00E0900004F0900006E0900005F0900007ED
:10120C00E0900006F0A37405F0C2B2D2B312134BF7
:10121C007F1E0213472086627F327E001217323007
:10122C00860302134A3086FD900001E0900000F026
:10123C00900002E0900001F0900003E0900002F0BA
:10124C00900004E0900003F0900005E0900004F0A2
:10125C00900006E0900005F0900007E0900006F08A
:10126C00A37406F0C2B2C2B3C2B4C2B5C2B6C2B79E
:10127C00D2C01213557F1F02134720855D7F327E2B
:10128C000012173230850302134A3085FD9000019D
:10129C00E0900000F0900002E0900001F09000035C
:1012AC00E0900002F0900004E0900003F090000544
:1012BC00E0900004F0900006E0900005F09000072C
:1012CC00E0900006F0A37407F0C2B2C2B3C2B4C27D
:1012DC00B5D2B61213517F20806120A3617F327E7C
:1012EC000012173220A35730A3FD900001E09000AC
:1012FC0000F0900002E0900001F0900003E09000FC
:10130C0002F0900004E0900003F0900005E09000E3
:10131C0004F0900006E0900005F0900007E09000CB
:10132C0006F0A37408F0C2B2C2B3C2B4C2B5C2B65E
:0F133C00C2B7C2C0D2A01213577F2112135F2273
:03000000021612D3
:0C161200787FE4F6D8FD758107021659B8
:10175800BB010689828A83E0225002E722BBFE028F
:09176800E32289828A83E49322C2
:10177100D083D082F8E4937012740193700DA3A307
:1017810093F8740193F5828883E47374029368601B
:06179100EFA3A3A380DF1B
:10161E00020026E493A3F8E493A34003F68001F2BC
:10162E0008DFF48029E493A3F85407240CC8C333CD
:10163E00C4540F4420C8834004F456800146F6DF9C
:10164E00E4800B0102040810204080901566E47EB1
:10165E00019360BCA3FF543F30E509541FFEE49391
:10166E00A360010ECF54C025E060A840B8E493A358
:10167E00FAE493A3F8E493A3C8C582C8CAC583CA83
:10168E00F0A3C8C582C8CAC583CADFE9DEE780BE3B
:0116110000D8
:00000001FF
