:10047100011400010C00010D000110000111000127
:1004810012000113000115000116000117000118E7
:1004910000011900011A00011B00010E00020800F1
:0504A10001020A000148
:1004FA00C2AF758920758DFDD28EC29FD29ED2AFB2
:01050A0022CE
:100003007F7E1200147F041200147F421200147FBB
:0100130001EB
:0E001400C2ACC2998F993099FDC299D2AC222C
:1004E700120432FF600C120014740129F9E43AFA7D
:0304F70080EE2272
:0300230002050BC8
:0A050B00C2ACC29885990FD2AC3241
:100026001203E675BB707F3312023A7F0112023A61
:100036001204A77F3312023A7F0112023A1204A772
:100046007F3312023A7F0112023A1204A7E51260C8
:100056000302015120855BE50E70577F32FE1204C4
:10006600AB20854E3085FD7F3312023A7F021202A5
:100076003A0509E50970020508D3941EE5089400BF
:10008600500DD2917F967E001204ABC2918023C39D
:10009600E509941FE50894004018D291750C0112E9
:1000A60004A77F3312023A7F0112023A1204A7759F
:1000B6000E0120845BE51B70577F32FE1204AB20D5
:1000C600844E3084FD7F3312023A7F0212023A05D3
:1000D6000BE50B7002050AD3941EE50A9400500D39
:1000E600D2927F967E001204ABC2928023C3E50BA8
:1000F600941FE50A94004018D292750D011204A7C8
:100106007F3312023A7F0112023A1204A7751B01CD
:10011600E50C64016003020053E50D64016003020F
:100126000053751201751301D2901204A77F331282
:10013600023A7F0812023A7F407E1F1204AB7F33D9
:1001460012023A7F0112023A020053E5136401607B
:100156000302022AE515600302022A208317E51628
:1001660070137516011204A77F3312023A7F031229
:10017600023A1204A7208217E517701375170112A9
:1001860004A77F3312023A7F0412023A1204A72010
:100196008117E51870137518011204A77F33120230
:1001A6003A7F0512023A1204A7208017E519701348
:1001B6007519011204A77F3312023A7F0612023A1A
:1001C6001204A720C417E51A7013751A011204A7A2
:1001D6007F3312023A7F0712023A1204A7E5166429
:1001E600016003020151E51764016003020151E554
:1001F6001864016003020151E519640160030201FC
:1002060051E51A64016003020151D2C2C294751508
:10021600011204A77F3312023A7F0912023A12042E
:10022600A7020151E5156401600302005320C5F4DD
:04023600C29380F0FF
:1003E600E4F5937594FFF5917592FFF5957596FF73
:1003F600F5B175B2FCF5B375B4FFC2C2C290C29135
:10040600C292D293D294C295C296C297C2C3D2C4A4
:10041600D2C5D2C1D2C6D286D287D285D284D28361
:0C042600D282D281D2801204FA0204D1EA
:0404A7007FF47E015F
:1004AB00E4FDFCC3ED9FEE6480F8EC64809850157E
:1004BB00E4FBFA0BBB00010ABA03F8BBE8F50DBD70
:0504CB0000010C80DEC1
:0104D0002209
:10023A00EF12044B028101028702028E0302960426
:10024A00029E0502A60602AE0702B60802BE09020F
:10025A00C60A02CE0B02D60C02DE0D02E60E02ED33
:10026A000F02F431030732031A33032D34034035E6
:10027A000307360000035912000302035112000358
:10028A000F0203511200037F030203511200037F7E
:10029A00040203511200037F050203511200037F77
:1002AA00060203511200037F070203511200037F63
:1002BA00080203511200037F090203511200037F4F
:1002CA000A0203511200037F0B0203511200037F3B
:1002DA000C0203511200037F0D0203511200037F27
:1002EA000E80641200037F0F805D7F7E1200147FF0
:1002FA00031200147F311200147F20804A7F7E127D
:10030A0000147F031200147F311200147F1080370B
:10031A007F7E1200147F031200147F331200147FB1
:10032A000480247F7E1200147F031200147F33128C
:10033A0000147F0280117F7E1200147F03120014C2
:10034A007F311200147F071200147FEF120014226B
:1004D1007F3312023A7F3112023AC2AC7F647E004E
:0604E1001204ABD2AC22B4
:0300000002035A9E
:0C035A00787FE4F6D8FD75811B0203A13A
:10043200BB010689828A83E0225002E722BBFE02C8
:09044200E32289828A83E49322FB
:10044B00D083D082F8E4937012740193700DA3A340
:10045B0093F8740193F5828883E473740293686054
:06046B00EFA3A3A380DF54
:10036600020026E493A3F8E493A34003F68001F287
:1003760008DFF48029E493A3F85407240CC8C33398
:10038600C4540F4420C8834004F456800146F6DF67
:10039600E4800B0102040810204080900471E47E82
:1003A600019360BCA3FF543F30E509541FFEE4935C
:1003B600A360010ECF54C025E060A840B8E493A323
:1003C600FAE493A3F8E493A3C8C582C8CAC583CA4E
:1003D600F0A3C8C582C8CAC583CADFE9DEE780BE06
:0104A6000055
:00000001FF
