:1004E900011100010D00010E00010F0001100001B2
:0B04F9000800010900010A00010B00CF
:10052E00C2AF758920758DFDD28EC29FD29ED2AF7D
:01053E00229A
:100003007F7E1200147F041200147F421200147FBB
:0100130001EB
:0E001400C2ACC2998F993099FDC299D2AC222C
:10051B00120480FF600C120014740129F9E43AFAFA
:03052B0080EE223D
:0300230002053F94
:0A053F00C2ACC29885990CD2AC3210
:1000260012043275BB70E4F5111204BF1204BF123C
:1000360004BF1204BF7F331202867F011202867F3D
:10004600887E131204C3E4F509F50AF50B20C525CD
:10005600E50970217F32FE1204C320C518E5097038
:10006600147F331202867F021202867509017FD041
:100076007E071204C320C125E50A70217F32FE12D5
:1000860004C320C118E50A70147F331202867F026A
:10009600120286750A017FD07E071204C320C62588
:1000A600E50B70217F32FE1204C320C618E50B70E3
:1000B600147F331202867F02120286750B017FD0EF
:1000C6007E071204C3E50B64017055E50A640170EE
:1000D6004FE50964017049E51170457F32FE12044F
:1000E600C320C53C20C13920C6367511017FA07ECC
:1000F6000F1204C3D2947F031202867FD07E0712AA
:1001060004C37F041202861204BF1204BF1204BF86
:100116001204BF1204BF7F331202867F07120286C3
:100126002085117F327E001204C3208507C2C2D209
:1001360096750D012084117F327E001204C320843F
:1001460007C290D297750E012083117F327E00126E
:1001560004C3208307C291D2C3750F01E50D640164
:100166007070E50E6401706AE50F64017064E51055
:100176007060E508705C7F887E131204C37F887EFA
:10018600131204C37F081202867F887E131204C3EB
:100196007508011204BF1204BF7F887E131204C3C0
:1001A6007F091202867F887E131204C37FD07E07E2
:1001B6001204C37F0A1202861204BF1204BF12047D
:1001C600BF7F331202867F0B1202867FB87E0B1228
:1001D60004C330860C308709E508B40104D2958043
:1001E60002C2952082447F327E001204C320823AE6
:1001F600751001C292C294C296C297C2C37F3312CF
:1002060002867F0C1202867F887E131204C37F88C3
:100216007E131204C3C2A67FF47E011204C3D2A6C3
:100226007F331202867F0D12028630C4030200530A
:100236007F647E001204C330C4030200537FD07E65
:10024600071204C3C2931204BF1204BF1204BF7F75
:10025600331202867F0E1202861204BF1204BF7F7B
:10026600D07E071204C37F321202867F33120286C3
:100276007F021202867F707E171204C3C2AC80E62C
:10043200E4F5937594FFF5917592FFF5957596FF26
:10044200F5B175B2FCF5B375B4FFD2C2D290D291B8
:10045200D292D293C294D295C296C297C2C3D2A666
:10046200D2C4D2C5D2C1D2C6D286D287D285D284D4
:0E047200D283D282D281D28012052E020505DD
:0404BF007F407E1FDD
:1004C300E4FDFCC3ED9FEE6480F8EC648098501566
:1004D300E4FBFA0BBB00010ABA03F8BBE8F50DBD58
:0504E30000010C80DEA9
:0104E80022F1
:10028600EF12049902CD0102D30202DA0302E2045C
:1002960002EA0502F20602FA07030208030A090344
:1002A600120A031A0B03220C032A0D03320E03391A
:1002B6000F034031035332036633037934038C351D
:1002C600035336000003A512000302039D12000328
:1002D6000F02039D1200037F0302039D1200037F9A
:1002E6000402039D1200037F0502039D1200037F93
:1002F6000602039D1200037F0702039D1200037F7F
:100306000802039D1200037F0902039D1200037F6A
:100316000A02039D1200037F0B02039D1200037F56
:100326000C02039D1200037F0D02039D1200037F42
:100336000E80641200037F0F805D7F7E1200147FA3
:10034600031200147F311200147F20804A7F7E1230
:1003560000147F031200147F311200147F108037BF
:100366007F7E1200147F031200147F331200147F65
:100376000480247F7E1200147F031200147F331240
:1003860000147F0280117F7E1200147F0312001476
:100396007F311200147F071200147FEF120014221F
:100505007F331202867F31120286C2AC7F647E0081
:060515001204C3D2AC2267
:030000000203A652
:0C03A600787FE4F6D8FD7581110203EDAC
:10048000BB010689828A83E0225002E722BBFE027A
:09049000E32289828A83E49322AD
:10049900D083D082F8E4937012740193700DA3A3F2
:1004A90093F8740193F5828883E473740293686006
:0604B900EFA3A3A380DF06
:1003B200020026E493A3F8E493A34003F68001F23B
:1003C20008DFF48029E493A3F85407240CC8C3334C
:1003D200C4540F4420C8834004F456800146F6DF1B
:1003E200E4800B01020408102040809004E9E47EBE
:1003F200019360BCA3FF543F30E509541FFEE49310
:10040200A360010ECF54C025E060A840B8E493A3D6
:10041200FAE493A3F8E493A3C8C582C8CAC583CA01
:10042200F0A3C8C582C8CAC583CADFE9DEE780BEB9
:0105040000F6
:00000001FF
