:10041B00011100010D00010F00011000010A000184
:0B042B000800010900010E00010C0098
:10046000C2AF758920758DFDD28EC29FD29ED2AF4C
:010470002269
:100003007F7E1200147F041200147F421200147FBB
:0100130001EB
:0E001400C2ACC2998F993099FDC299D2AC222C
:10044D001203B2FF600C120014740129F9E43AFA98
:03045D0080EE220C
:0300230002047163
:0A047100C2ACC29885990BD2AC32E0
:1000260012036675BB70E4F511F50AF508F509F5D6
:100036000C20851AE50C70167F331201BD7F041261
:1000460001BD7FE87E031203F5750C01800E308535
:100056000BE50CB40106E4F50C1203F120824720EF
:100066008544E50870407F32FE1203F52082372072
:100076008534E5087030D294F50E1203F1050EE5CD
:100086000EC3941440F4D292C2C21203F1C2941267
:1000960003F17F331201BD7F011201BD7FB87E0BD4
:1000A6001203F5750801208105D293750901E5094A
:1000B600640160030201B230860C30870930C6063F
:1000C60030C10302019230860C30870930C60630F3
:1000D600C50302019230860C30870930C60630C44B
:1000E6000302019230860C30870930C10630C50301
:1000F60002019230860C30870930C10630C40302F3
:10010600019230860B30870830C50530C402807CEA
:1001160030860B30C60830C10530C502806E308689
:100126000B30C60830C10530C402806030860B3003
:10013600C60830C50530C402805230860B30C1086F
:1001460030C50530C402804430870B30C60830C144
:100156000530C502803630870B30C60830C1053001
:10016600C402802830870B30C60830C50530C4026B
:10017600801A30870B30C10830C50530C402800CA8
:1001860030C62930C12630C52330C420C2907F3303
:100196001201BD7F021201BD7F707E171203F57F2B
:1001A600331201BD7F031201BDE4F5093084030259
:0701B6000037C2910200377F
:10036600E4F5937594FFF5917592FFF5957596FFF3
:10037600F5B175B2FCF5B375B4FFD2C2D290D29185
:10038600C292C293C294D295C296C297C2C3D2C435
:10039600D2C5D2C1D2C6D286D287D285D284D283E2
:0C03A600D282D281D2801204600204379F
:0403F1007FF47E0116
:1003F500E4FDFCC3ED9FEE6480F8EC648098501535
:10040500E4FBFA0BBB00010ABA03F8BBE8F50DBD26
:0504150000010C80DE77
:01041A0022BF
:1001BD00EF1203CB020101020702020E0302160425
:1001CD00021E05022606022E07023608023E09020D
:1001DD00460A024E0B02560C025E0D02660E026DB1
:1001ED000F027431028732029A3302AD3402C035E8
:1001FD00000002D91200030202D11200030F020205
:10020D00D11200037F030202D11200037F04020208
:10021D00D11200037F050202D11200037F060202F4
:10022D00D11200037F070202D11200037F080202E0
:10023D00D11200037F090202D11200037F0A0202CC
:10024D00D11200037F0B0202D11200037F0C0202B8
:10025D00D11200037F0D0202D11200037F0E8064C4
:10026D001200037F0F805D7F7E1200147F0312004A
:10027D00147F311200147F20804A7F7E1200147F7C
:10028D00031200147F311200147F1480377F7E1209
:10029D0000147F031200147F331200147F04802496
:1002AD007F7E1200147F031200147F331200147F1F
:1002BD000280117F7E1200147F031200147F311211
:0D02CD0000147F071200147FEF12001422AE
:100437007F331201BD7F311201BDC2AC7F647E00E4
:060447001203F5D2AC2205
:030000000202DA1F
:0C02DA00787FE4F6D8FD75811102032145
:1003B200BB010689828A83E0225002E722BBFE0249
:0903C200E32289828A83E493227C
:1003CB00D083D082F8E4937012740193700DA3A3C1
:1003DB0093F8740193F5828883E4737402936860D5
:0603EB00EFA3A3A380DFD5
:1002E600020026E493A3F8E493A34003F68001F208
:1002F60008DFF48029E493A3F85407240CC8C33319
:10030600C4540F4420C8834004F456800146F6DFE7
:10031600E4800B010204081020408090041BE47E58
:10032600019360BCA3FF543F30E509541FFEE493DC
:10033600A360010ECF54C025E060A840B8E493A3A3
:10034600FAE493A3F8E493A3C8C582C8CAC583CACE
:10035600F0A3C8C582C8CAC583CADFE9DEE780BE86
:0104360000C5
:00000001FF
