:1003D400010800010C01010D01010E01010A0101D6
:0903E4000900010F0002100000E5
:10041700C2AF758920758DFDD28EC29FD29ED2AF95
:0104270022B2
:100003007F7E1200147F041200147F421200147FBB
:0100130001EB
:0E001400C2ACC2998F993099FDC299D2AC222C
:10040400120303FF600C120014740129F9E43AFA90
:0304140080EE2255
:03002300020428AC
:0A042800C2ACC29885990BD2AC3229
:1000260012034275BB70750A01E4F509E50A64011D
:100036007058308005E508B401207F327E00120337
:10004600AE308005E508B401117F0112015A75082A
:1000560001D2807FB87E0B1203AE20872DE50C649B
:100066000170277F32FE1203AE20871EE50CB40115
:1000760019E4F508F50C7F3312015A7F0212015A72
:100086007FB87E0B1203AE750A02E50A6402709C05
:10009600F51075110112037C7FFA7E001203AE057E
:1000A60011E51170020510C39478E5106480948000
:1000B60040E3E50F6401704030870E7F0112015A5C
:1000C6007FAC7E0D1203AE80EF7F0412015A7510CD
:1000D60000751101C3E5119478E5106480948040A1
:1000E6000302003212037C7FFA7E001203AE051172
:1000F600E51170E0051080DCE50F64036003020083
:100106003230870E7F0112015A7FAC7E0D1203AE8C
:1001160080EF7F0312015A1203AAC290750A0312D6
:1001260003AA1203AA1203AA7F3512015A751000F8
:10013600751101C3E51194B0E51064809484400301
:100146000200327F887E131203AE0511E51170E3BB
:04015600051080DF31
:10037C00208207308704750F012220820720870412
:10038C00750F022220810A308207308704750F0313
:0E039C0022208109308206208703750F04227B
:10034200E4F5937594FFF5917592FFF5957596FF17
:10035200F5B175B2FCF5B375B4FFD2C4D2C5D2C142
:10036200D2C6D286D287D285D284D283D282D28199
:0A037200D280D2901204170203EEAD
:0403AA007F407E1FF3
:1003AE00E4FDFCC3ED9FEE6480F8EC64809850157C
:1003BE00E4FBFA0BBB00010ABA03F8BBE8F50DBD6E
:0503CE0000010C80DEBF
:0103D3002207
:10015A00EF12031C019E0101A40201AB0301B304C7
:10016A0001BB0501C30601CB0701D30801DB090165
:10017A00E30A01EB0B01F30C01FB0D02030E020A69
:10018A000F021131022432023733024A34025D353A
:10019A000000027612000302026E1200030F02022E
:1001AA006E1200037F0302026E1200037F04020232
:1001BA006E1200037F0502026E1200037F0602021E
:1001CA006E1200037F0702026E1200037F0802020A
:1001DA006E1200037F0902026E1200037F0A0202F6
:1001EA006E1200037F0B02026E1200037F0C0202E2
:1001FA006E1200037F0D02026E1200037F0E8064EE
:10020A001200037F0F805D7F7E1200147F031200AD
:10021A00147F311200147F20804A7F7E1200147FDF
:10022A00031200147F311200147F1080377F7E1270
:10023A0000147F031200147F331200147F048024F9
:10024A007F7E1200147F031200147F331200147F82
:10025A000280117F7E1200147F031200147F311274
:0D026A000014E4FF1200147FEF12001422B4
:1003EE007F3312015A7F3112015AC2AC7F647E00F4
:0603FE001203AED2AC2296
:0300000002027782
:0C027700787FE4F6D8FD7581110202BE0C
:10030300BB010689828A83E0225002E722BBFE02F8
:09031300E32289828A83E493222B
:10031C00D083D082F8E4937012740193700DA3A370
:10032C0093F8740193F5828883E473740293686084
:06033C00EFA3A3A380DF84
:10028300020026E493A3F8E493A34003F68001F26B
:1002930008DFF48029E493A3F85407240CC8C3337C
:1002A300C4540F4420C8834004F456800146F6DF4B
:1002B300E4800B01020408102040809003D4E47E04
:1002C300019360BCA3FF543F30E509541FFEE49340
:1002D300A360010ECF54C025E060A840B8E493A307
:1002E300FAE493A3F8E493A3C8C582C8CAC583CA32
:1002F300F0A3C8C582C8CAC583CADFE9DEE780BEEA
:0103ED00000F
:00000001FF
