:10077800011A000111000112000113000114000107
:100788001500011600010900010A00010B00010D06
:1007980000011700010F00012200012300010800D9
:1007A800011800011900011B00011C00011D0001B6
:1007B8001E00011F00012000012100010C00010E94
:0107C8000030
:10086800C2AF758920758DFDD28EC29FD29ED2AF40
:01087800225D
:100003007F7E1200147F041200147F421200147FBB
:0100130001EB
:0E001400C2ACC2998F993099FDC299D2AC222C
:100855001207CAFF600C120014740129F9E43AFA70
:0308650080EE2200
:0300230002087957
:0A087900C2ACC298859910D2AC32CF
:1000260012071A75BB7020851AE51970167F64FED3
:100036001208197F3312056E7F0112056E1208151C
:1000460075190120841AE51B70167F64FE120819C3
:100056007F3312056E7F0212056E120815751B019D
:1000660020831AE51C70167F64FE1208197F33126E
:10007600056E7F0312056E120815751C0120821A83
:10008600E51D70167F64FE1208197F3312056E7F18
:100096000412056E120815751D0120811AE51E70E1
:1000A600167F64FE1208197F3312056E7F0512054E
:1000B6006E120815751E0120801AE51F70167F64E2
:1000C600FE1208197F3312056E7F0612056E12089E
:1000D60015751F0120A61AE52070167F64FE12080A
:1000E600197F3312056E7F0712056E1208157520EB
:1000F60001E519640160030201D9E51B640160038F
:100106000201D9E51C640160030201D9E51D640101
:1001160060030201D9E51E640160030201D9E51FEF
:10012600640160030201D9E520640160030201D97C
:10013600E51860030201D97F3312056E7F081205A8
:100146006ED2C2120815D290120815D29112081555
:10015600D292120815D293120815D294120815D20B
:10016600957518017F887E13120819C2C0C2A0C2F5
:10017600A1C2A2C2A3C2A4C2C2C290C291C292C26A
:1001860093C294C2957F887E13120819D290D29199
:10019600D2A030C5FDC2A0C290C291D292D293D253
:1001A600A130C1FDC2A1C292C293D295D290D2A271
:1001B60030C6FDC2A2C295C290D294D2A33087FDAA
:1001C600C2A3C294D291D293D2A43086FDC2A4C255
:1001D60091C293E522600302002CE51864016003D6
:1001E60002002CE50E60030204ADD2A2D290D29199
:1001F600F50930C60E7F327E0012081930C6040596
:100206000FC2A27F647E001208190509E509C3948E
:100216005040DFC2A2C290C291120815D2A2D2A447
:10022600D290D291D293E4F50930C60E7F327E0089
:1002360012081930C604050FC2A230860E7F327E20
:1002460000120819308604050FC2A47F647E0012CE
:1002560008190509E509C3945040CEC2A2C2A4C23A
:1002660090C291C293120815D2A0D2A3D2C2D29242
:10027600D295E4F50930C50E7F327E00120819309A
:10028600C504050FC2A030870E7F327E0012081902
:10029600308704050FC2A37F647E00120819050982
:1002A600E509C3945040CEC2A0C2A3C2C2C292C244
:1002B60095120815D2A1D2A2D2A3D2C2D290D292BE
:1002C600D294E4F50930C10E7F327E00120819304F
:1002D600C104050FC2A130C60E7F327E0012081976
:1002E60030C604050FC2A230870E7F327E00120888
:1002F60019308704050FC2A37F647E001208190512
:1003060009E509C3947840BDC2A1C2A2C2A3C2C274
:10031600C290C292C294120815D2A0D2A1D2A4D27F
:1003260090D292D293D295E4F50930C50E7F327EF3
:100336000012081930C504050FC2A030C10E7F3265
:100346007E0012081930C104050FC2A130860E7F47
:10035600327E00120819308604050FC2A47F647E1F
:10036600001208190509E509C3947840BDC2A0C268
:10037600A1C2A4C290C292C293C295D2A0D2A2D266
:10038600A3D2C2D290D291D294D295E4F50930C4C8
:100396000E7F327E0012081930C404050FC2C03029
:1003A600C50E7F327E0012081930C504050FC2A0A3
:1003B60030C60E7F327E0012081930C604050FC201
:1003C600A230870E7F327E00120819308704050F8F
:1003D600C2A37F647E001208190509E509C3949635
:1003E60040ACC2C0C2A0C2A2C2A3C2C2C290C29145
:1003F600C294C295120815D2C0D2A0D2A1D2A2D25E
:10040600A3D2A4D2C2D290D291D292D293D294D273
:1004160095E4F50930C40E7F327E0012081930C407
:1004260004050FC2C030C50E7F327E001208193097
:10043600C504050FC2A030C10E7F327E0012081916
:1004460030C104050FC2A130C60E7F327E001208ED
:100456001930C604050FC2A230870E7F327E001205
:100466000819308704050FC2A330860E7F327E003E
:10047600120819308604050FC2A47F647E00120894
:10048600190509E509C39496408AC2C0C2A0C2A153
:10049600C2A2C2A3C2A4C2C2C290C291C292C29355
:1004A600C294C295750E01E50FC3940A5003020566
:1004B60034120815120809C2C0C2A0C2A1C2A2C243
:1004C600A3C2A4120815120809C2C0C2A0C2A1C2C2
:1004D600A2C2A3C2A47F3312056E7F0A12056E7FE5
:1004E600407E1F120819D2C0D2A0D2A1D2A2D2A396
:1004F600D2A4D2C2D290D291D292D293D294D29591
:100506007F407E1F1208197F407E1F1208197F4008
:100516007E1F1208197F407E1F1208197F407E1F1A
:100526001208197F407E1F120819C29680FE7F337B
:1005360012056E7F0912056EE4F50EF50FC2C0C2F4
:10054600A0C2A1C2A2C2A3C2A4C2C2C290C291C288
:1005560092C293C294C2957F407E1F1208197F40B3
:080566007E1F1208190201D9E1
:10071A00E4F5937594FFF5917592FFF5957596FF3B
:10072A00F5B175B2FCF5B375B4FFC2C2C290C291FD
:10073A00C292C293C294C295D296C297C2C3D2C47D
:10074A00D2C5D2C1D2C6D286D287D285D284D2832A
:10075A00D282D281D280D2A6D2A7C2C0C2A0C2A15E
:0E076A00C2A2C2A3C2A4C2A512086802083F20
:10080900D2C0D2A0D2A1D2A2D2A3D2A47FF47E0117
:10081900E4FDFCC3ED9FEE6480F8EC64809850150C
:10082900E4FBFA0BBB00010ABA03F8BBE8F50DBDFE
:0508390000010C80DE4F
:01083E002297
:10056E00EF1207E305B50105BB0205C20305CA0478
:10057E0005D20505DA0605E20705EA0805F20905C2
:10058E00FA0A06020B060A0C06120D061A0E0621B0
:10059E000F062831063B32064E330661340674359B
:1005AE00063B360000068D1200030206851200037C
:1005BE000F0206851200037F030206851200037FD9
:1005CE00040206851200037F050206851200037FD2
:1005DE00060206851200037F070206851200037FBE
:1005EE00080206851200037F090206851200037FAA
:1005FE000A0206851200037F0B0206851200037F96
:10060E000C0206851200037F0D0206851200037F81
:10061E000E80641200037F0F805D7F7E1200147FB8
:10062E00031200147F311200147F20804A7F7E1245
:10063E0000147F031200147F311200147F108037D4
:10064E007F7E1200147F031200147F331200147F7A
:10065E000480247F7E1200147F031200147F331255
:10066E0000147F0280117F7E1200147F031200148B
:10067E007F311200147F071200147FEF1200142234
:10083F007F3312056E7F3112056EC2AC7F647E006E
:06084F00120819D2AC22D0
:0300000002068E67
:0C068E00787FE4F6D8FD7581230206D5C4
:1007CA00BB010689828A83E0225002E722BBFE022D
:0907DA00E32289828A83E4932260
:1007E300D083D082F8E4937012740193700DA3A3A5
:1007F30093F8740193F5828883E4737402936860B9
:06080300EFA3A3A380DFB8
:10069A00020026E493A3F8E493A34003F68001F250
:1006AA0008DFF48029E493A3F85407240CC8C33361
:1006BA00C4540F4420C8834004F456800146F6DF30
:1006CA00E4800B0102040810204080900778E47E41
:1006DA00019360BCA3FF543F30E509541FFEE49325
:1006EA00A360010ECF54C025E060A840B8E493A3EC
:1006FA00FAE493A3F8E493A3C8C582C8CAC583CA17
:10070A00F0A3C8C582C8CAC583CADFE9DEE780BECE
:0107C900002F
:00000001FF
