:10040B00010E00010900010A00010B00010C0001A3
:0E041B000D00010F0001100001110001120080
:10045300C2AF758920758DFDD28EC29FD29ED2AF59
:010463002276
:100003007F7E1200147F041200147F421200147FBB
:0100130001EB
:0E001400C2ACC2998F993099FDC299D2AC222C
:100440001203A2FF600C120014740129F9E43AFAB5
:0304500080EE2219
:0300230002046470
:0A046400C2ACC298859908D2AC32F0
:100026001203437FD07E071203E57F331201977FC9
:10003600011201977FF47E011203E530872CE50C4F
:1000460070287F32FE1203E530871F7F3312019737
:100056007F021201971203E1D294750C011203E19B
:100066007F331201977F0112019720852FE50D70CE
:100076002BE50C640170257F32FE1203E520851CFA
:100086007F331201977F03120197D2C2750D0112B9
:1000960003E17F331201977F0912019720842FE530
:1000A6000F702BE50C640170257F32FE1203E520EC
:1000B600841C7F331201977F04120197D290750F2B
:1000C600011203E17F331201977F09120197208302
:1000D6002FE510702BE50C640170257F32FE1203AC
:1000E600E520831C7F331201977F05120197D29179
:1000F6007510011203E17F331201977F09120197F0
:1001060020822FE511702BE50C640170257F32FEED
:100116001203E520821C7F331201977F0612019796
:10012600D2927511011203E17F331201977F0912F2
:100136000197E50D64016003020041E50F6401606B
:1001460003020041E51064016003020041E5116409
:10015600016003020041E5126003020041750C02D2
:100166007512011203E17F331201977F071201977F
:10017600C2947F887E131203E5D2957F887E131280
:1001860003E57F331201977F08120197D2C302005D
:010196004127
:10034300E4F5937594FFF5917592FFF5957596FF16
:10035300F5B175B2FCF5B375B4FF75BB70C2C2C21B
:1003630090C291C292C293C294C295C296C297C2DE
:10037300C3C2B2C2B3C2B4C2B5D2C4D2C5D2C1D24F
:10038300C6D287D286D2A7D2A6D2A5D2A4D285D2EC
:0F03930084D283D282D281D28012045302042AF0
:0403E1007FB87E0B58
:1003E500E4FDFCC3ED9FEE6480F8EC648098501545
:1003F500E4FBFA0BBB00010ABA03F8BBE8F50DBD37
:0504050000010C80DE87
:01040A0022CF
:10019700EF1203BB01DE0101E40201EB0301F304EB
:1001A70001FB05020306020B07021308021B0902E3
:1001B700230A022B0B02330C023B0D02430E024AA9
:1001C7000F025131026432027733028A34029D35BD
:1001D700026436000002B61200030202AE120003E8
:1001E7000F0202AE1200037F030202AE1200037F6A
:1001F700040202AE1200037F050202AE1200037F63
:10020700060202AE1200037F070202AE1200037F4E
:10021700080202AE1200037F090202AE1200037F3A
:100227000A0202AE1200037F0B0202AE1200037F26
:100237000C0202AE1200037F0D0202AE1200037F12
:100247000E80641200037F0F805D7F7E1200147F93
:10025700031200147F311200147F20804A7F7E1220
:1002670000147F031200147F311200147F108037AF
:100277007F7E1200147F031200147F331200147F55
:100287000480247F7E1200147F031200147F331230
:1002970000147F0280117F7E1200147F0312001466
:1002A7007F311200147F071200147FEF120014220F
:10042A007F331201977F31120197C2AC7F647E003D
:06043A001203E5D2AC2222
:030000000202B742
:0C02B700787FE4F6D8FD7581120202FE8B
:1003A200BB010689828A83E0225002E722BBFE0259
:0903B200E32289828A83E493228C
:1003BB00D083D082F8E4937012740193700DA3A3D1
:1003CB0093F8740193F5828883E4737402936860E5
:0603DB00EFA3A3A380DFE5
:1002C300020026E493A3F8E493A34003F68001F22B
:1002D30008DFF48029E493A3F85407240CC8C3333C
:1002E300C4540F4420C8834004F456800146F6DF0B
:1002F300E4800B010204081020408090040BE47E8C
:10030300019360BCA3FF543F30E509541FFEE493FF
:10031300A360010ECF54C025E060A840B8E493A3C6
:10032300FAE493A3F8E493A3C8C582C8CAC583CAF1
:10033300F0A3C8C582C8CAC583CADFE9DEE780BEA9
:0104290000D2
:00000001FF
